{
  "address": "0x3D1BA2979ac423BcCbc929bc2c3895c9408a332f",
  "abi": [
    {
      "inputs": [
        {
          "internalType": "bytes32[]",
          "name": "proposalNames",
          "type": "bytes32[]"
        },
        {
          "internalType": "address",
          "name": "_voteToken",
          "type": "address"
        }
      ],
      "stateMutability": "nonpayable",
      "type": "constructor"
    },
    {
      "anonymous": false,
      "inputs": [
        {
          "indexed": true,
          "internalType": "address",
          "name": "voter",
          "type": "address"
        },
        {
          "indexed": true,
          "internalType": "uint256",
          "name": "proposal",
          "type": "uint256"
        },
        {
          "indexed": false,
          "internalType": "uint256",
          "name": "weight",
          "type": "uint256"
        },
        {
          "indexed": false,
          "internalType": "uint256",
          "name": "proposalVotes",
          "type": "uint256"
        }
      ],
      "name": "Voted",
      "type": "event"
    },
    {
      "inputs": [
        {
          "internalType": "uint256",
          "name": "",
          "type": "uint256"
        }
      ],
      "name": "proposals",
      "outputs": [
        {
          "internalType": "bytes32",
          "name": "name",
          "type": "bytes32"
        },
        {
          "internalType": "uint256",
          "name": "voteCount",
          "type": "uint256"
        }
      ],
      "stateMutability": "view",
      "type": "function"
    },
    {
      "inputs": [],
      "name": "referenceBlock",
      "outputs": [
        {
          "internalType": "uint256",
          "name": "",
          "type": "uint256"
        }
      ],
      "stateMutability": "view",
      "type": "function"
    },
    {
      "inputs": [
        {
          "internalType": "address",
          "name": "",
          "type": "address"
        }
      ],
      "name": "spentVotePower",
      "outputs": [
        {
          "internalType": "uint256",
          "name": "",
          "type": "uint256"
        }
      ],
      "stateMutability": "view",
      "type": "function"
    },
    {
      "inputs": [
        {
          "internalType": "uint256",
          "name": "proposal",
          "type": "uint256"
        },
        {
          "internalType": "uint256",
          "name": "amount",
          "type": "uint256"
        }
      ],
      "name": "vote",
      "outputs": [],
      "stateMutability": "nonpayable",
      "type": "function"
    },
    {
      "inputs": [],
      "name": "voteToken",
      "outputs": [
        {
          "internalType": "contract IERC20Votes",
          "name": "",
          "type": "address"
        }
      ],
      "stateMutability": "view",
      "type": "function"
    },
    {
      "inputs": [],
      "name": "votingPower",
      "outputs": [
        {
          "internalType": "uint256",
          "name": "votingPower_",
          "type": "uint256"
        }
      ],
      "stateMutability": "view",
      "type": "function"
    },
    {
      "inputs": [],
      "name": "winnerName",
      "outputs": [
        {
          "internalType": "bytes32",
          "name": "winnerName_",
          "type": "bytes32"
        }
      ],
      "stateMutability": "view",
      "type": "function"
    },
    {
      "inputs": [],
      "name": "winningProposal",
      "outputs": [
        {
          "internalType": "uint256",
          "name": "winningProposal_",
          "type": "uint256"
        }
      ],
      "stateMutability": "view",
      "type": "function"
    }
  ],
  "transactionHash": "0x2004d448e2f0e27e37b79ba4af34b2ccab8e6f0a77a4513aae0ca9628ccc26c6",
  "args": [
    [
      "0x70726f706f73616c2d3100000000000000000000000000000000000000000000",
      "0x70726f706f73616c2d3200000000000000000000000000000000000000000000",
      "0x70726f706f73616c2d3300000000000000000000000000000000000000000000"
    ],
    "0xA933829940db7Fc86AeF99C20E20408c573F51cD"
  ],
  "numDeployments": 1,
  "solcInputHash": "908c45c6295fa7ef76d8df0f74cee9e4",
  "bytecode": "0x60806040523480156200001157600080fd5b5060405162000e4c38038062000e4c833981810160405281019062000037919062000348565b60005b8251811015620000ce5760016040518060400160405280858481518110620000675762000066620003ae565b5b6020026020010151815260200160008152509080600181540180825580915050600190039060005260206000209060020201600090919091909150600082015181600001556020820151816001015550508080620000c59062000416565b9150506200003a565b5080600260006101000a81548173ffffffffffffffffffffffffffffffffffffffff021916908373ffffffffffffffffffffffffffffffffffffffff16021790555043600381905550505062000463565b6000604051905090565b600080fd5b600080fd5b600080fd5b6000601f19601f8301169050919050565b7f4e487b7100000000000000000000000000000000000000000000000000000000600052604160045260246000fd5b620001838262000138565b810181811067ffffffffffffffff82111715620001a557620001a462000149565b5b80604052505050565b6000620001ba6200011f565b9050620001c8828262000178565b919050565b600067ffffffffffffffff821115620001eb57620001ea62000149565b5b602082029050602081019050919050565b600080fd5b6000819050919050565b620002168162000201565b81146200022257600080fd5b50565b60008151905062000236816200020b565b92915050565b6000620002536200024d84620001cd565b620001ae565b90508083825260208201905060208402830185811115620002795762000278620001fc565b5b835b81811015620002a6578062000291888262000225565b8452602084019350506020810190506200027b565b5050509392505050565b600082601f830112620002c857620002c762000133565b5b8151620002da8482602086016200023c565b91505092915050565b600073ffffffffffffffffffffffffffffffffffffffff82169050919050565b60006200031082620002e3565b9050919050565b620003228162000303565b81146200032e57600080fd5b50565b600081519050620003428162000317565b92915050565b6000806040838503121562000362576200036162000129565b5b600083015167ffffffffffffffff8111156200038357620003826200012e565b5b6200039185828601620002b0565b9250506020620003a48582860162000331565b9150509250929050565b7f4e487b7100000000000000000000000000000000000000000000000000000000600052603260045260246000fd5b7f4e487b7100000000000000000000000000000000000000000000000000000000600052601160045260246000fd5b6000819050919050565b600062000423826200040c565b91507fffffffffffffffffffffffffffffffffffffffffffffffffffffffffffffffff8203620004585762000457620003dd565b5b600182019050919050565b6109d980620004736000396000f3fe608060405234801561001057600080fd5b50600436106100885760003560e01c806377174f851161005b57806377174f851461012a578063b384abef14610148578063d94c8caa14610164578063e2ba53f01461018257610088565b8063013cf08b1461008d578063160d66ae146100be57806346a38bc8146100dc578063609ff1bd1461010c575b600080fd5b6100a760048036038101906100a2919061055a565b6101a0565b6040516100b59291906105af565b60405180910390f35b6100c66101d4565b6040516100d39190610657565b60405180910390f35b6100f660048036038101906100f191906106b0565b6101fa565b60405161010391906106dd565b60405180910390f35b610114610212565b60405161012191906106dd565b60405180910390f35b61013261029a565b60405161013f91906106dd565b60405180910390f35b610162600480360381019061015d91906106f8565b61038a565b005b61016c6104e5565b60405161017991906106dd565b60405180910390f35b61018a6104eb565b6040516101979190610738565b60405180910390f35b600181815481106101b057600080fd5b90600052602060002090600202016000915090508060000154908060010154905082565b600260009054906101000a900473ffffffffffffffffffffffffffffffffffffffff1681565b60006020528060005260406000206000915090505481565b6000806000905060005b60018054905081101561029557816001828154811061023e5761023d610753565b5b9060005260206000209060020201600101541115610282576001818154811061026a57610269610753565b5b90600052602060002090600202016001015491508092505b808061028d906107b1565b91505061021c565b505090565b60008060003373ffffffffffffffffffffffffffffffffffffffff1673ffffffffffffffffffffffffffffffffffffffff16815260200190815260200160002054600260009054906101000a900473ffffffffffffffffffffffffffffffffffffffff1673ffffffffffffffffffffffffffffffffffffffff16633a46b1a8336003546040518363ffffffff1660e01b815260040161033a929190610808565b602060405180830381865afa158015610357573d6000803e3d6000fd5b505050506040513d601f19601f8201168201806040525081019061037b9190610846565b6103859190610873565b905090565b600061039461029a565b9050818110156103d9576040517f08c379a00000000000000000000000000000000000000000000000000000000081526004016103d090610904565b60405180910390fd5b816000803373ffffffffffffffffffffffffffffffffffffffff1673ffffffffffffffffffffffffffffffffffffffff16815260200190815260200160002060008282546104279190610924565b92505081905550816001848154811061044357610442610753565b5b906000526020600020906002020160010160008282546104639190610924565b92505081905550823373ffffffffffffffffffffffffffffffffffffffff167fc32b42768a47a585121e9b8d7a2ab9d3f34c326a192dee11ee1732e3d18313f384600187815481106104b8576104b7610753565b5b9060005260206000209060020201600101546040516104d892919061097a565b60405180910390a3505050565b60035481565b600060016104f7610212565b8154811061050857610507610753565b5b906000526020600020906002020160000154905090565b600080fd5b6000819050919050565b61053781610524565b811461054257600080fd5b50565b6000813590506105548161052e565b92915050565b6000602082840312156105705761056f61051f565b5b600061057e84828501610545565b91505092915050565b6000819050919050565b61059a81610587565b82525050565b6105a981610524565b82525050565b60006040820190506105c46000830185610591565b6105d160208301846105a0565b9392505050565b600073ffffffffffffffffffffffffffffffffffffffff82169050919050565b6000819050919050565b600061061d610618610613846105d8565b6105f8565b6105d8565b9050919050565b600061062f82610602565b9050919050565b600061064182610624565b9050919050565b61065181610636565b82525050565b600060208201905061066c6000830184610648565b92915050565b600061067d826105d8565b9050919050565b61068d81610672565b811461069857600080fd5b50565b6000813590506106aa81610684565b92915050565b6000602082840312156106c6576106c561051f565b5b60006106d48482850161069b565b91505092915050565b60006020820190506106f260008301846105a0565b92915050565b6000806040838503121561070f5761070e61051f565b5b600061071d85828601610545565b925050602061072e85828601610545565b9150509250929050565b600060208201905061074d6000830184610591565b92915050565b7f4e487b7100000000000000000000000000000000000000000000000000000000600052603260045260246000fd5b7f4e487b7100000000000000000000000000000000000000000000000000000000600052601160045260246000fd5b60006107bc82610524565b91507fffffffffffffffffffffffffffffffffffffffffffffffffffffffffffffffff82036107ee576107ed610782565b5b600182019050919050565b61080281610672565b82525050565b600060408201905061081d60008301856107f9565b61082a60208301846105a0565b9392505050565b6000815190506108408161052e565b92915050565b60006020828403121561085c5761085b61051f565b5b600061086a84828501610831565b91505092915050565b600061087e82610524565b915061088983610524565b92508282101561089c5761089b610782565b5b828203905092915050565b600082825260208201905092915050565b7f486173206e6f7420656e6f75676820766f74696e6720706f7765720000000000600082015250565b60006108ee601b836108a7565b91506108f9826108b8565b602082019050919050565b6000602082019050818103600083015261091d816108e1565b9050919050565b600061092f82610524565b915061093a83610524565b9250827fffffffffffffffffffffffffffffffffffffffffffffffffffffffffffffffff0382111561096f5761096e610782565b5b828201905092915050565b600060408201905061098f60008301856105a0565b61099c60208301846105a0565b939250505056fea2646970667358221220e1bc7f136635f9ab93829c90594b61ba8b5dc3090a7ddd48a7f19c138526877164736f6c634300080f0033",
  "devdoc": {
    "kind": "dev",
    "methods": {},
    "version": 1
  },
  "userdoc": {
    "kind": "user",
    "methods": {},
    "version": 1
  },
  "storageLayout": {
    "storage": [
      {
        "astId": 5309,
        "contract": "contracts/CustomBallot.sol:CustomBallot",
        "label": "spentVotePower",
        "offset": 0,
        "slot": "0",
        "type": "t_mapping(t_address,t_uint256)"
      },
      {
        "astId": 5313,
        "contract": "contracts/CustomBallot.sol:CustomBallot",
        "label": "proposals",
        "offset": 0,
        "slot": "1",
        "type": "t_array(t_struct(Proposal)5305_storage)dyn_storage"
      },
      {
        "astId": 5316,
        "contract": "contracts/CustomBallot.sol:CustomBallot",
        "label": "voteToken",
        "offset": 0,
        "slot": "2",
        "type": "t_contract(IERC20Votes)5290"
      },
      {
        "astId": 5318,
        "contract": "contracts/CustomBallot.sol:CustomBallot",
        "label": "referenceBlock",
        "offset": 0,
        "slot": "3",
        "type": "t_uint256"
      }
    ],
    "types": {
      "t_address": {
        "encoding": "inplace",
        "label": "address",
        "numberOfBytes": "20"
      },
      "t_array(t_struct(Proposal)5305_storage)dyn_storage": {
        "base": "t_struct(Proposal)5305_storage",
        "encoding": "dynamic_array",
        "label": "struct CustomBallot.Proposal[]",
        "numberOfBytes": "32"
      },
      "t_bytes32": {
        "encoding": "inplace",
        "label": "bytes32",
        "numberOfBytes": "32"
      },
      "t_contract(IERC20Votes)5290": {
        "encoding": "inplace",
        "label": "contract IERC20Votes",
        "numberOfBytes": "20"
      },
      "t_mapping(t_address,t_uint256)": {
        "encoding": "mapping",
        "key": "t_address",
        "label": "mapping(address => uint256)",
        "numberOfBytes": "32",
        "value": "t_uint256"
      },
      "t_struct(Proposal)5305_storage": {
        "encoding": "inplace",
        "label": "struct CustomBallot.Proposal",
        "members": [
          {
            "astId": 5302,
            "contract": "contracts/CustomBallot.sol:CustomBallot",
            "label": "name",
            "offset": 0,
            "slot": "0",
            "type": "t_bytes32"
          },
          {
            "astId": 5304,
            "contract": "contracts/CustomBallot.sol:CustomBallot",
            "label": "voteCount",
            "offset": 0,
            "slot": "1",
            "type": "t_uint256"
          }
        ],
        "numberOfBytes": "64"
      },
      "t_uint256": {
        "encoding": "inplace",
        "label": "uint256",
        "numberOfBytes": "32"
      }
    }
  }
}