{
  "address": "0xA933829940db7Fc86AeF99C20E20408c573F51cD",
  "abi": [
    {
      "inputs": [],
      "stateMutability": "nonpayable",
      "type": "constructor"
    },
    {
      "anonymous": false,
      "inputs": [
        {
          "indexed": true,
          "internalType": "address",
          "name": "owner",
          "type": "address"
        },
        {
          "indexed": true,
          "internalType": "address",
          "name": "spender",
          "type": "address"
        },
        {
          "indexed": false,
          "internalType": "uint256",
          "name": "value",
          "type": "uint256"
        }
      ],
      "name": "Approval",
      "type": "event"
    },
    {
      "anonymous": false,
      "inputs": [
        {
          "indexed": true,
          "internalType": "address",
          "name": "delegator",
          "type": "address"
        },
        {
          "indexed": true,
          "internalType": "address",
          "name": "fromDelegate",
          "type": "address"
        },
        {
          "indexed": true,
          "internalType": "address",
          "name": "toDelegate",
          "type": "address"
        }
      ],
      "name": "DelegateChanged",
      "type": "event"
    },
    {
      "anonymous": false,
      "inputs": [
        {
          "indexed": true,
          "internalType": "address",
          "name": "delegate",
          "type": "address"
        },
        {
          "indexed": false,
          "internalType": "uint256",
          "name": "previousBalance",
          "type": "uint256"
        },
        {
          "indexed": false,
          "internalType": "uint256",
          "name": "newBalance",
          "type": "uint256"
        }
      ],
      "name": "DelegateVotesChanged",
      "type": "event"
    },
    {
      "anonymous": false,
      "inputs": [
        {
          "indexed": true,
          "internalType": "bytes32",
          "name": "role",
          "type": "bytes32"
        },
        {
          "indexed": true,
          "internalType": "bytes32",
          "name": "previousAdminRole",
          "type": "bytes32"
        },
        {
          "indexed": true,
          "internalType": "bytes32",
          "name": "newAdminRole",
          "type": "bytes32"
        }
      ],
      "name": "RoleAdminChanged",
      "type": "event"
    },
    {
      "anonymous": false,
      "inputs": [
        {
          "indexed": true,
          "internalType": "bytes32",
          "name": "role",
          "type": "bytes32"
        },
        {
          "indexed": true,
          "internalType": "address",
          "name": "account",
          "type": "address"
        },
        {
          "indexed": true,
          "internalType": "address",
          "name": "sender",
          "type": "address"
        }
      ],
      "name": "RoleGranted",
      "type": "event"
    },
    {
      "anonymous": false,
      "inputs": [
        {
          "indexed": true,
          "internalType": "bytes32",
          "name": "role",
          "type": "bytes32"
        },
        {
          "indexed": true,
          "internalType": "address",
          "name": "account",
          "type": "address"
        },
        {
          "indexed": true,
          "internalType": "address",
          "name": "sender",
          "type": "address"
        }
      ],
      "name": "RoleRevoked",
      "type": "event"
    },
    {
      "anonymous": false,
      "inputs": [
        {
          "indexed": true,
          "internalType": "address",
          "name": "from",
          "type": "address"
        },
        {
          "indexed": true,
          "internalType": "address",
          "name": "to",
          "type": "address"
        },
        {
          "indexed": false,
          "internalType": "uint256",
          "name": "value",
          "type": "uint256"
        }
      ],
      "name": "Transfer",
      "type": "event"
    },
    {
      "inputs": [],
      "name": "DEFAULT_ADMIN_ROLE",
      "outputs": [
        {
          "internalType": "bytes32",
          "name": "",
          "type": "bytes32"
        }
      ],
      "stateMutability": "view",
      "type": "function"
    },
    {
      "inputs": [],
      "name": "DOMAIN_SEPARATOR",
      "outputs": [
        {
          "internalType": "bytes32",
          "name": "",
          "type": "bytes32"
        }
      ],
      "stateMutability": "view",
      "type": "function"
    },
    {
      "inputs": [],
      "name": "MINTER_ROLE",
      "outputs": [
        {
          "internalType": "bytes32",
          "name": "",
          "type": "bytes32"
        }
      ],
      "stateMutability": "view",
      "type": "function"
    },
    {
      "inputs": [
        {
          "internalType": "address",
          "name": "owner",
          "type": "address"
        },
        {
          "internalType": "address",
          "name": "spender",
          "type": "address"
        }
      ],
      "name": "allowance",
      "outputs": [
        {
          "internalType": "uint256",
          "name": "",
          "type": "uint256"
        }
      ],
      "stateMutability": "view",
      "type": "function"
    },
    {
      "inputs": [
        {
          "internalType": "address",
          "name": "spender",
          "type": "address"
        },
        {
          "internalType": "uint256",
          "name": "amount",
          "type": "uint256"
        }
      ],
      "name": "approve",
      "outputs": [
        {
          "internalType": "bool",
          "name": "",
          "type": "bool"
        }
      ],
      "stateMutability": "nonpayable",
      "type": "function"
    },
    {
      "inputs": [
        {
          "internalType": "address",
          "name": "account",
          "type": "address"
        }
      ],
      "name": "balanceOf",
      "outputs": [
        {
          "internalType": "uint256",
          "name": "",
          "type": "uint256"
        }
      ],
      "stateMutability": "view",
      "type": "function"
    },
    {
      "inputs": [
        {
          "internalType": "address",
          "name": "account",
          "type": "address"
        },
        {
          "internalType": "uint32",
          "name": "pos",
          "type": "uint32"
        }
      ],
      "name": "checkpoints",
      "outputs": [
        {
          "components": [
            {
              "internalType": "uint32",
              "name": "fromBlock",
              "type": "uint32"
            },
            {
              "internalType": "uint224",
              "name": "votes",
              "type": "uint224"
            }
          ],
          "internalType": "struct ERC20Votes.Checkpoint",
          "name": "",
          "type": "tuple"
        }
      ],
      "stateMutability": "view",
      "type": "function"
    },
    {
      "inputs": [],
      "name": "decimals",
      "outputs": [
        {
          "internalType": "uint8",
          "name": "",
          "type": "uint8"
        }
      ],
      "stateMutability": "view",
      "type": "function"
    },
    {
      "inputs": [
        {
          "internalType": "address",
          "name": "spender",
          "type": "address"
        },
        {
          "internalType": "uint256",
          "name": "subtractedValue",
          "type": "uint256"
        }
      ],
      "name": "decreaseAllowance",
      "outputs": [
        {
          "internalType": "bool",
          "name": "",
          "type": "bool"
        }
      ],
      "stateMutability": "nonpayable",
      "type": "function"
    },
    {
      "inputs": [
        {
          "internalType": "address",
          "name": "delegatee",
          "type": "address"
        }
      ],
      "name": "delegate",
      "outputs": [],
      "stateMutability": "nonpayable",
      "type": "function"
    },
    {
      "inputs": [
        {
          "internalType": "address",
          "name": "delegatee",
          "type": "address"
        },
        {
          "internalType": "uint256",
          "name": "nonce",
          "type": "uint256"
        },
        {
          "internalType": "uint256",
          "name": "expiry",
          "type": "uint256"
        },
        {
          "internalType": "uint8",
          "name": "v",
          "type": "uint8"
        },
        {
          "internalType": "bytes32",
          "name": "r",
          "type": "bytes32"
        },
        {
          "internalType": "bytes32",
          "name": "s",
          "type": "bytes32"
        }
      ],
      "name": "delegateBySig",
      "outputs": [],
      "stateMutability": "nonpayable",
      "type": "function"
    },
    {
      "inputs": [
        {
          "internalType": "address",
          "name": "account",
          "type": "address"
        }
      ],
      "name": "delegates",
      "outputs": [
        {
          "internalType": "address",
          "name": "",
          "type": "address"
        }
      ],
      "stateMutability": "view",
      "type": "function"
    },
    {
      "inputs": [
        {
          "internalType": "uint256",
          "name": "blockNumber",
          "type": "uint256"
        }
      ],
      "name": "getPastTotalSupply",
      "outputs": [
        {
          "internalType": "uint256",
          "name": "",
          "type": "uint256"
        }
      ],
      "stateMutability": "view",
      "type": "function"
    },
    {
      "inputs": [
        {
          "internalType": "address",
          "name": "account",
          "type": "address"
        },
        {
          "internalType": "uint256",
          "name": "blockNumber",
          "type": "uint256"
        }
      ],
      "name": "getPastVotes",
      "outputs": [
        {
          "internalType": "uint256",
          "name": "",
          "type": "uint256"
        }
      ],
      "stateMutability": "view",
      "type": "function"
    },
    {
      "inputs": [
        {
          "internalType": "bytes32",
          "name": "role",
          "type": "bytes32"
        }
      ],
      "name": "getRoleAdmin",
      "outputs": [
        {
          "internalType": "bytes32",
          "name": "",
          "type": "bytes32"
        }
      ],
      "stateMutability": "view",
      "type": "function"
    },
    {
      "inputs": [
        {
          "internalType": "address",
          "name": "account",
          "type": "address"
        }
      ],
      "name": "getVotes",
      "outputs": [
        {
          "internalType": "uint256",
          "name": "",
          "type": "uint256"
        }
      ],
      "stateMutability": "view",
      "type": "function"
    },
    {
      "inputs": [
        {
          "internalType": "bytes32",
          "name": "role",
          "type": "bytes32"
        },
        {
          "internalType": "address",
          "name": "account",
          "type": "address"
        }
      ],
      "name": "grantRole",
      "outputs": [],
      "stateMutability": "nonpayable",
      "type": "function"
    },
    {
      "inputs": [
        {
          "internalType": "bytes32",
          "name": "role",
          "type": "bytes32"
        },
        {
          "internalType": "address",
          "name": "account",
          "type": "address"
        }
      ],
      "name": "hasRole",
      "outputs": [
        {
          "internalType": "bool",
          "name": "",
          "type": "bool"
        }
      ],
      "stateMutability": "view",
      "type": "function"
    },
    {
      "inputs": [
        {
          "internalType": "address",
          "name": "spender",
          "type": "address"
        },
        {
          "internalType": "uint256",
          "name": "addedValue",
          "type": "uint256"
        }
      ],
      "name": "increaseAllowance",
      "outputs": [
        {
          "internalType": "bool",
          "name": "",
          "type": "bool"
        }
      ],
      "stateMutability": "nonpayable",
      "type": "function"
    },
    {
      "inputs": [
        {
          "internalType": "address",
          "name": "to",
          "type": "address"
        },
        {
          "internalType": "uint256",
          "name": "amount",
          "type": "uint256"
        }
      ],
      "name": "mint",
      "outputs": [],
      "stateMutability": "nonpayable",
      "type": "function"
    },
    {
      "inputs": [],
      "name": "name",
      "outputs": [
        {
          "internalType": "string",
          "name": "",
          "type": "string"
        }
      ],
      "stateMutability": "view",
      "type": "function"
    },
    {
      "inputs": [
        {
          "internalType": "address",
          "name": "owner",
          "type": "address"
        }
      ],
      "name": "nonces",
      "outputs": [
        {
          "internalType": "uint256",
          "name": "",
          "type": "uint256"
        }
      ],
      "stateMutability": "view",
      "type": "function"
    },
    {
      "inputs": [
        {
          "internalType": "address",
          "name": "account",
          "type": "address"
        }
      ],
      "name": "numCheckpoints",
      "outputs": [
        {
          "internalType": "uint32",
          "name": "",
          "type": "uint32"
        }
      ],
      "stateMutability": "view",
      "type": "function"
    },
    {
      "inputs": [
        {
          "internalType": "address",
          "name": "owner",
          "type": "address"
        },
        {
          "internalType": "address",
          "name": "spender",
          "type": "address"
        },
        {
          "internalType": "uint256",
          "name": "value",
          "type": "uint256"
        },
        {
          "internalType": "uint256",
          "name": "deadline",
          "type": "uint256"
        },
        {
          "internalType": "uint8",
          "name": "v",
          "type": "uint8"
        },
        {
          "internalType": "bytes32",
          "name": "r",
          "type": "bytes32"
        },
        {
          "internalType": "bytes32",
          "name": "s",
          "type": "bytes32"
        }
      ],
      "name": "permit",
      "outputs": [],
      "stateMutability": "nonpayable",
      "type": "function"
    },
    {
      "inputs": [
        {
          "internalType": "bytes32",
          "name": "role",
          "type": "bytes32"
        },
        {
          "internalType": "address",
          "name": "account",
          "type": "address"
        }
      ],
      "name": "renounceRole",
      "outputs": [],
      "stateMutability": "nonpayable",
      "type": "function"
    },
    {
      "inputs": [
        {
          "internalType": "bytes32",
          "name": "role",
          "type": "bytes32"
        },
        {
          "internalType": "address",
          "name": "account",
          "type": "address"
        }
      ],
      "name": "revokeRole",
      "outputs": [],
      "stateMutability": "nonpayable",
      "type": "function"
    },
    {
      "inputs": [
        {
          "internalType": "bytes4",
          "name": "interfaceId",
          "type": "bytes4"
        }
      ],
      "name": "supportsInterface",
      "outputs": [
        {
          "internalType": "bool",
          "name": "",
          "type": "bool"
        }
      ],
      "stateMutability": "view",
      "type": "function"
    },
    {
      "inputs": [],
      "name": "symbol",
      "outputs": [
        {
          "internalType": "string",
          "name": "",
          "type": "string"
        }
      ],
      "stateMutability": "view",
      "type": "function"
    },
    {
      "inputs": [],
      "name": "totalSupply",
      "outputs": [
        {
          "internalType": "uint256",
          "name": "",
          "type": "uint256"
        }
      ],
      "stateMutability": "view",
      "type": "function"
    },
    {
      "inputs": [
        {
          "internalType": "address",
          "name": "to",
          "type": "address"
        },
        {
          "internalType": "uint256",
          "name": "amount",
          "type": "uint256"
        }
      ],
      "name": "transfer",
      "outputs": [
        {
          "internalType": "bool",
          "name": "",
          "type": "bool"
        }
      ],
      "stateMutability": "nonpayable",
      "type": "function"
    },
    {
      "inputs": [
        {
          "internalType": "address",
          "name": "from",
          "type": "address"
        },
        {
          "internalType": "address",
          "name": "to",
          "type": "address"
        },
        {
          "internalType": "uint256",
          "name": "amount",
          "type": "uint256"
        }
      ],
      "name": "transferFrom",
      "outputs": [
        {
          "internalType": "bool",
          "name": "",
          "type": "bool"
        }
      ],
      "stateMutability": "nonpayable",
      "type": "function"
    }
  ],
  "transactionHash": "0xdcc73080677a61ecdd141fe34510c50b5f8c09cf357c429ea2a74ec6c05d7531",
  "args": [],
  "numDeployments": 1,
  "solcInputHash": "908c45c6295fa7ef76d8df0f74cee9e4",
  "bytecode": "0x6101406040523480156200001257600080fd5b506040518060400160405280600781526020017f4d79546f6b656e00000000000000000000000000000000000000000000000000815250806040518060400160405280600181526020017f31000000000000000000000000000000000000000000000000000000000000008152506040518060400160405280600781526020017f4d79546f6b656e000000000000000000000000000000000000000000000000008152506040518060400160405280600381526020017f4d544b00000000000000000000000000000000000000000000000000000000008152508160039081620000fd91906200062d565b5080600490816200010f91906200062d565b50505060008280519060200120905060008280519060200120905060007f8b73c3c69bb8fe3d512ecc4cf759cc79239f7b179b0ffacaa9a75d522b39400f90508260e081815250508161010081815250504660a081815250506200017b8184846200021260201b60201c565b608081815250503073ffffffffffffffffffffffffffffffffffffffff1660c08173ffffffffffffffffffffffffffffffffffffffff1681525050806101208181525050505050505050620001da6000801b336200024e60201b60201c565b6200020c7f9f2df0fed2c77648de5860a4cc508cd0818c85b8b8a1ab4ceeef8d981c8956a6336200024e60201b60201c565b620007e2565b600083838346306040516020016200022f95949392919062000785565b6040516020818303038152906040528051906020012090509392505050565b6200026082826200034060201b60201c565b6200033c5760016005600084815260200190815260200160002060000160008373ffffffffffffffffffffffffffffffffffffffff1673ffffffffffffffffffffffffffffffffffffffff16815260200190815260200160002060006101000a81548160ff021916908315150217905550620002e1620003ab60201b60201c565b73ffffffffffffffffffffffffffffffffffffffff168173ffffffffffffffffffffffffffffffffffffffff16837f2f8788117e7eff1d82e926ec794901d17c78024a50270940304540a733656f0d60405160405180910390a45b5050565b60006005600084815260200190815260200160002060000160008373ffffffffffffffffffffffffffffffffffffffff1673ffffffffffffffffffffffffffffffffffffffff16815260200190815260200160002060009054906101000a900460ff16905092915050565b600033905090565b600081519050919050565b7f4e487b7100000000000000000000000000000000000000000000000000000000600052604160045260246000fd5b7f4e487b7100000000000000000000000000000000000000000000000000000000600052602260045260246000fd5b600060028204905060018216806200043557607f821691505b6020821081036200044b576200044a620003ed565b5b50919050565b60008190508160005260206000209050919050565b60006020601f8301049050919050565b600082821b905092915050565b600060088302620004b57fffffffffffffffffffffffffffffffffffffffffffffffffffffffffffffffff8262000476565b620004c1868362000476565b95508019841693508086168417925050509392505050565b6000819050919050565b6000819050919050565b60006200050e620005086200050284620004d9565b620004e3565b620004d9565b9050919050565b6000819050919050565b6200052a83620004ed565b62000542620005398262000515565b84845462000483565b825550505050565b600090565b620005596200054a565b620005668184846200051f565b505050565b5b818110156200058e57620005826000826200054f565b6001810190506200056c565b5050565b601f821115620005dd57620005a78162000451565b620005b28462000466565b81016020851015620005c2578190505b620005da620005d18562000466565b8301826200056b565b50505b505050565b600082821c905092915050565b60006200060260001984600802620005e2565b1980831691505092915050565b60006200061d8383620005ef565b9150826002028217905092915050565b6200063882620003b3565b67ffffffffffffffff811115620006545762000653620003be565b5b6200066082546200041c565b6200066d82828562000592565b600060209050601f831160018114620006a5576000841562000690578287015190505b6200069c85826200060f565b8655506200070c565b601f198416620006b58662000451565b60005b82811015620006df57848901518255600182019150602085019450602081019050620006b8565b86831015620006ff5784890151620006fb601f891682620005ef565b8355505b6001600288020188555050505b505050505050565b6000819050919050565b620007298162000714565b82525050565b6200073a81620004d9565b82525050565b600073ffffffffffffffffffffffffffffffffffffffff82169050919050565b60006200076d8262000740565b9050919050565b6200077f8162000760565b82525050565b600060a0820190506200079c60008301886200071e565b620007ab60208301876200071e565b620007ba60408301866200071e565b620007c960608301856200072f565b620007d8608083018462000774565b9695505050505050565b60805160a05160c05160e05161010051610120516143f9620008326000396000611971015260006119b301526000611992015260006118c70152600061191d0152600061194601526143f96000f3fe608060405234801561001057600080fd5b50600436106101e55760003560e01c80636fcfff451161010f578063a457c2d7116100a2578063d539139311610071578063d539139314610616578063d547741f14610634578063dd62ed3e14610650578063f1127ed814610680576101e5565b8063a457c2d71461057e578063a9059cbb146105ae578063c3cda520146105de578063d505accf146105fa576101e5565b806391d14854116100de57806391d14854146104e257806395d89b41146105125780639ab24eb014610530578063a217fddf14610560576101e5565b80636fcfff451461042257806370a08231146104525780637ecebe00146104825780638e539e8c146104b2576101e5565b8063313ce567116101875780633a46b1a8116101565780633a46b1a81461038a57806340c10f19146103ba578063587cde1e146103d65780635c19a95c14610406576101e5565b8063313ce567146103025780633644e5151461032057806336568abe1461033e578063395093511461035a576101e5565b806318160ddd116101c357806318160ddd1461026857806323b872dd14610286578063248a9ca3146102b65780632f2ff15d146102e6576101e5565b806301ffc9a7146101ea57806306fdde031461021a578063095ea7b314610238575b600080fd5b61020460048036038101906101ff9190612c49565b6106b0565b6040516102119190612c91565b60405180910390f35b61022261072a565b60405161022f9190612d45565b60405180910390f35b610252600480360381019061024d9190612dfb565b6107bc565b60405161025f9190612c91565b60405180910390f35b6102706107df565b60405161027d9190612e4a565b60405180910390f35b6102a0600480360381019061029b9190612e65565b6107e9565b6040516102ad9190612c91565b60405180910390f35b6102d060048036038101906102cb9190612eee565b610818565b6040516102dd9190612f2a565b60405180910390f35b61030060048036038101906102fb9190612f45565b610838565b005b61030a610859565b6040516103179190612fa1565b60405180910390f35b610328610862565b6040516103359190612f2a565b60405180910390f35b61035860048036038101906103539190612f45565b610871565b005b610374600480360381019061036f9190612dfb565b6108f4565b6040516103819190612c91565b60405180910390f35b6103a4600480360381019061039f9190612dfb565b61092b565b6040516103b19190612e4a565b60405180910390f35b6103d460048036038101906103cf9190612dfb565b6109bf565b005b6103f060048036038101906103eb9190612fbc565b6109f8565b6040516103fd9190612ff8565b60405180910390f35b610420600480360381019061041b9190612fbc565b610a61565b005b61043c60048036038101906104379190612fbc565b610a75565b6040516104499190613032565b60405180910390f35b61046c60048036038101906104679190612fbc565b610ac9565b6040516104799190612e4a565b60405180910390f35b61049c60048036038101906104979190612fbc565b610b11565b6040516104a99190612e4a565b60405180910390f35b6104cc60048036038101906104c7919061304d565b610b61565b6040516104d99190612e4a565b60405180910390f35b6104fc60048036038101906104f79190612f45565b610bb7565b6040516105099190612c91565b60405180910390f35b61051a610c22565b6040516105279190612d45565b60405180910390f35b61054a60048036038101906105459190612fbc565b610cb4565b6040516105579190612e4a565b60405180910390f35b610568610dc5565b6040516105759190612f2a565b60405180910390f35b61059860048036038101906105939190612dfb565b610dcc565b6040516105a59190612c91565b60405180910390f35b6105c860048036038101906105c39190612dfb565b610e43565b6040516105d59190612c91565b60405180910390f35b6105f860048036038101906105f391906130a6565b610e66565b005b610614600480360381019061060f9190613133565b610f6a565b005b61061e6110ac565b60405161062b9190612f2a565b60405180910390f35b61064e60048036038101906106499190612f45565b6110d0565b005b61066a600480360381019061066591906131d5565b6110f1565b6040516106779190612e4a565b60405180910390f35b61069a60048036038101906106959190613241565b611178565b6040516106a791906132f6565b60405180910390f35b60007f7965db0b000000000000000000000000000000000000000000000000000000007bffffffffffffffffffffffffffffffffffffffffffffffffffffffff1916827bffffffffffffffffffffffffffffffffffffffffffffffffffffffff19161480610723575061072282611288565b5b9050919050565b60606003805461073990613340565b80601f016020809104026020016040519081016040528092919081815260200182805461076590613340565b80156107b25780601f10610787576101008083540402835291602001916107b2565b820191906000526020600020905b81548152906001019060200180831161079557829003601f168201915b5050505050905090565b6000806107c76112f2565b90506107d48185856112fa565b600191505092915050565b6000600254905090565b6000806107f46112f2565b90506108018582856114c3565b61080c85858561154f565b60019150509392505050565b600060056000838152602001908152602001600020600101549050919050565b61084182610818565b61084a816117ce565b61085483836117e2565b505050565b60006012905090565b600061086c6118c3565b905090565b6108796112f2565b73ffffffffffffffffffffffffffffffffffffffff168173ffffffffffffffffffffffffffffffffffffffff16146108e6576040517f08c379a00000000000000000000000000000000000000000000000000000000081526004016108dd906133e3565b60405180910390fd5b6108f082826119dd565b5050565b6000806108ff6112f2565b905061092081858561091185896110f1565b61091b9190613432565b6112fa565b600191505092915050565b600043821061096f576040517f08c379a0000000000000000000000000000000000000000000000000000000008152600401610966906134d4565b60405180910390fd5b6109b7600960008573ffffffffffffffffffffffffffffffffffffffff1673ffffffffffffffffffffffffffffffffffffffff16815260200190815260200160002083611abf565b905092915050565b7f9f2df0fed2c77648de5860a4cc508cd0818c85b8b8a1ab4ceeef8d981c8956a66109e9816117ce565b6109f38383611bcb565b505050565b6000600860008373ffffffffffffffffffffffffffffffffffffffff1673ffffffffffffffffffffffffffffffffffffffff16815260200190815260200160002060009054906101000a900473ffffffffffffffffffffffffffffffffffffffff169050919050565b610a72610a6c6112f2565b82611bd9565b50565b6000610ac2600960008473ffffffffffffffffffffffffffffffffffffffff1673ffffffffffffffffffffffffffffffffffffffff16815260200190815260200160002080549050611cf3565b9050919050565b60008060008373ffffffffffffffffffffffffffffffffffffffff1673ffffffffffffffffffffffffffffffffffffffff168152602001908152602001600020549050919050565b6000610b5a600660008473ffffffffffffffffffffffffffffffffffffffff1673ffffffffffffffffffffffffffffffffffffffff168152602001908152602001600020611d46565b9050919050565b6000438210610ba5576040517f08c379a0000000000000000000000000000000000000000000000000000000008152600401610b9c906134d4565b60405180910390fd5b610bb0600a83611abf565b9050919050565b60006005600084815260200190815260200160002060000160008373ffffffffffffffffffffffffffffffffffffffff1673ffffffffffffffffffffffffffffffffffffffff16815260200190815260200160002060009054906101000a900460ff16905092915050565b606060048054610c3190613340565b80601f0160208091040260200160405190810160405280929190818152602001828054610c5d90613340565b8015610caa5780601f10610c7f57610100808354040283529160200191610caa565b820191906000526020600020905b815481529060010190602001808311610c8d57829003601f168201915b5050505050905090565b600080600960008473ffffffffffffffffffffffffffffffffffffffff1673ffffffffffffffffffffffffffffffffffffffff16815260200190815260200160002080549050905060008114610d9c57600960008473ffffffffffffffffffffffffffffffffffffffff1673ffffffffffffffffffffffffffffffffffffffff168152602001908152602001600020600182610d5091906134f4565b81548110610d6157610d60613528565b5b9060005260206000200160000160049054906101000a90047bffffffffffffffffffffffffffffffffffffffffffffffffffffffff16610d9f565b60005b7bffffffffffffffffffffffffffffffffffffffffffffffffffffffff16915050919050565b6000801b81565b600080610dd76112f2565b90506000610de582866110f1565b905083811015610e2a576040517f08c379a0000000000000000000000000000000000000000000000000000000008152600401610e21906135c9565b60405180910390fd5b610e3782868684036112fa565b60019250505092915050565b600080610e4e6112f2565b9050610e5b81858561154f565b600191505092915050565b83421115610ea9576040517f08c379a0000000000000000000000000000000000000000000000000000000008152600401610ea090613635565b60405180910390fd5b6000610f0b610f037fe48329057bfd03d55e49b547132e39cffd9c1820ad7b9d4c5307691425d15adf898989604051602001610ee89493929190613655565b60405160208183030381529060405280519060200120611d54565b858585611d6e565b9050610f1681611d99565b8614610f57576040517f08c379a0000000000000000000000000000000000000000000000000000000008152600401610f4e906136e6565b60405180910390fd5b610f618188611bd9565b50505050505050565b83421115610fad576040517f08c379a0000000000000000000000000000000000000000000000000000000008152600401610fa490613752565b60405180910390fd5b60007f6e71edae12b1b97f4d1f60370fef10105fa2faae0126114a169c64845d6126c9888888610fdc8c611d99565b89604051602001610ff296959493929190613772565b604051602081830303815290604052805190602001209050600061101582611d54565b9050600061102582878787611d6e565b90508973ffffffffffffffffffffffffffffffffffffffff168173ffffffffffffffffffffffffffffffffffffffff1614611095576040517f08c379a000000000000000000000000000000000000000000000000000000000815260040161108c9061381f565b60405180910390fd5b6110a08a8a8a6112fa565b50505050505050505050565b7f9f2df0fed2c77648de5860a4cc508cd0818c85b8b8a1ab4ceeef8d981c8956a681565b6110d982610818565b6110e2816117ce565b6110ec83836119dd565b505050565b6000600160008473ffffffffffffffffffffffffffffffffffffffff1673ffffffffffffffffffffffffffffffffffffffff16815260200190815260200160002060008373ffffffffffffffffffffffffffffffffffffffff1673ffffffffffffffffffffffffffffffffffffffff16815260200190815260200160002054905092915050565b611180612bae565b600960008473ffffffffffffffffffffffffffffffffffffffff1673ffffffffffffffffffffffffffffffffffffffff1681526020019081526020016000208263ffffffff16815481106111d7576111d6613528565b5b906000526020600020016040518060400160405290816000820160009054906101000a900463ffffffff1663ffffffff1663ffffffff1681526020016000820160049054906101000a90047bffffffffffffffffffffffffffffffffffffffffffffffffffffffff167bffffffffffffffffffffffffffffffffffffffffffffffffffffffff167bffffffffffffffffffffffffffffffffffffffffffffffffffffffff1681525050905092915050565b60007f01ffc9a7000000000000000000000000000000000000000000000000000000007bffffffffffffffffffffffffffffffffffffffffffffffffffffffff1916827bffffffffffffffffffffffffffffffffffffffffffffffffffffffff1916149050919050565b600033905090565b600073ffffffffffffffffffffffffffffffffffffffff168373ffffffffffffffffffffffffffffffffffffffff1603611369576040517f08c379a0000000000000000000000000000000000000000000000000000000008152600401611360906138b1565b60405180910390fd5b600073ffffffffffffffffffffffffffffffffffffffff168273ffffffffffffffffffffffffffffffffffffffff16036113d8576040517f08c379a00000000000000000000000000000000000000000000000000000000081526004016113cf90613943565b60405180910390fd5b80600160008573ffffffffffffffffffffffffffffffffffffffff1673ffffffffffffffffffffffffffffffffffffffff16815260200190815260200160002060008473ffffffffffffffffffffffffffffffffffffffff1673ffffffffffffffffffffffffffffffffffffffff168152602001908152602001600020819055508173ffffffffffffffffffffffffffffffffffffffff168373ffffffffffffffffffffffffffffffffffffffff167f8c5be1e5ebec7d5bd14f71427d1e84f3dd0314c0f7b2291e5b200ac8c7c3b925836040516114b69190612e4a565b60405180910390a3505050565b60006114cf84846110f1565b90507fffffffffffffffffffffffffffffffffffffffffffffffffffffffffffffffff8114611549578181101561153b576040517f08c379a0000000000000000000000000000000000000000000000000000000008152600401611532906139af565b60405180910390fd5b61154884848484036112fa565b5b50505050565b600073ffffffffffffffffffffffffffffffffffffffff168373ffffffffffffffffffffffffffffffffffffffff16036115be576040517f08c379a00000000000000000000000000000000000000000000000000000000081526004016115b590613a41565b60405180910390fd5b600073ffffffffffffffffffffffffffffffffffffffff168273ffffffffffffffffffffffffffffffffffffffff160361162d576040517f08c379a000000000000000000000000000000000000000000000000000000000815260040161162490613ad3565b60405180910390fd5b611638838383611df7565b60008060008573ffffffffffffffffffffffffffffffffffffffff1673ffffffffffffffffffffffffffffffffffffffff168152602001908152602001600020549050818110156116be576040517f08c379a00000000000000000000000000000000000000000000000000000000081526004016116b590613b65565b60405180910390fd5b8181036000808673ffffffffffffffffffffffffffffffffffffffff1673ffffffffffffffffffffffffffffffffffffffff16815260200190815260200160002081905550816000808573ffffffffffffffffffffffffffffffffffffffff1673ffffffffffffffffffffffffffffffffffffffff16815260200190815260200160002060008282546117519190613432565b925050819055508273ffffffffffffffffffffffffffffffffffffffff168473ffffffffffffffffffffffffffffffffffffffff167fddf252ad1be2c89b69c2b068fc378daa952ba7f163c4a11628f55a4df523b3ef846040516117b59190612e4a565b60405180910390a36117c8848484611dfc565b50505050565b6117df816117da6112f2565b611e0c565b50565b6117ec8282610bb7565b6118bf5760016005600084815260200190815260200160002060000160008373ffffffffffffffffffffffffffffffffffffffff1673ffffffffffffffffffffffffffffffffffffffff16815260200190815260200160002060006101000a81548160ff0219169083151502179055506118646112f2565b73ffffffffffffffffffffffffffffffffffffffff168173ffffffffffffffffffffffffffffffffffffffff16837f2f8788117e7eff1d82e926ec794901d17c78024a50270940304540a733656f0d60405160405180910390a45b5050565b60007f000000000000000000000000000000000000000000000000000000000000000073ffffffffffffffffffffffffffffffffffffffff163073ffffffffffffffffffffffffffffffffffffffff1614801561193f57507f000000000000000000000000000000000000000000000000000000000000000046145b1561196c577f000000000000000000000000000000000000000000000000000000000000000090506119da565b6119d77f00000000000000000000000000000000000000000000000000000000000000007f00000000000000000000000000000000000000000000000000000000000000007f0000000000000000000000000000000000000000000000000000000000000000611ea9565b90505b90565b6119e78282610bb7565b15611abb5760006005600084815260200190815260200160002060000160008373ffffffffffffffffffffffffffffffffffffffff1673ffffffffffffffffffffffffffffffffffffffff16815260200190815260200160002060006101000a81548160ff021916908315150217905550611a606112f2565b73ffffffffffffffffffffffffffffffffffffffff168173ffffffffffffffffffffffffffffffffffffffff16837ff6391f5c32d9c69d2a47ea670b442974b53935d1edc7fd64eb21e047a839171b60405160405180910390a45b5050565b6000808380549050905060005b81811015611b3e576000611ae08284611ee3565b905084868281548110611af657611af5613528565b5b9060005260206000200160000160009054906101000a900463ffffffff1663ffffffff161115611b2857809250611b38565b600181611b359190613432565b91505b50611acc565b60008214611ba05784600183611b5491906134f4565b81548110611b6557611b64613528565b5b9060005260206000200160000160049054906101000a90047bffffffffffffffffffffffffffffffffffffffffffffffffffffffff16611ba3565b60005b7bffffffffffffffffffffffffffffffffffffffffffffffffffffffff169250505092915050565b611bd58282611f09565b5050565b6000611be4836109f8565b90506000611bf184610ac9565b905082600860008673ffffffffffffffffffffffffffffffffffffffff1673ffffffffffffffffffffffffffffffffffffffff16815260200190815260200160002060006101000a81548173ffffffffffffffffffffffffffffffffffffffff021916908373ffffffffffffffffffffffffffffffffffffffff1602179055508273ffffffffffffffffffffffffffffffffffffffff168273ffffffffffffffffffffffffffffffffffffffff168573ffffffffffffffffffffffffffffffffffffffff167f3134e8a2e6d97e929a7e54011ea5485d7d196dd5f0ba4d4ef95803e8e3fc257f60405160405180910390a4611ced828483611f96565b50505050565b600063ffffffff8016821115611d3e576040517f08c379a0000000000000000000000000000000000000000000000000000000008152600401611d3590613bf7565b60405180910390fd5b819050919050565b600081600001549050919050565b6000611d67611d616118c3565b8361218f565b9050919050565b6000806000611d7f878787876121c2565b91509150611d8c816122ce565b8192505050949350505050565b600080600660008473ffffffffffffffffffffffffffffffffffffffff1673ffffffffffffffffffffffffffffffffffffffff1681526020019081526020016000209050611de681611d46565b9150611df18161249a565b50919050565b505050565b611e078383836124b0565b505050565b611e168282610bb7565b611ea557611e3b8173ffffffffffffffffffffffffffffffffffffffff1660146124db565b611e498360001c60206124db565b604051602001611e5a929190613ceb565b6040516020818303038152906040526040517f08c379a0000000000000000000000000000000000000000000000000000000008152600401611e9c9190612d45565b60405180910390fd5b5050565b60008383834630604051602001611ec4959493929190613d25565b6040516020818303038152906040528051906020012090509392505050565b60006002828418611ef49190613da7565b828416611f019190613432565b905092915050565b611f138282612717565b611f1b612876565b7bffffffffffffffffffffffffffffffffffffffffffffffffffffffff16611f416107df565b1115611f82576040517f08c379a0000000000000000000000000000000000000000000000000000000008152600401611f7990613e4a565b60405180910390fd5b611f90600a61289a836128b0565b50505050565b8173ffffffffffffffffffffffffffffffffffffffff168373ffffffffffffffffffffffffffffffffffffffff1614158015611fd25750600081115b1561218a57600073ffffffffffffffffffffffffffffffffffffffff168373ffffffffffffffffffffffffffffffffffffffff16146120b057600080612059600960008773ffffffffffffffffffffffffffffffffffffffff1673ffffffffffffffffffffffffffffffffffffffff168152602001908152602001600020612b28856128b0565b915091508473ffffffffffffffffffffffffffffffffffffffff167fdec2bacdd2f05b59de34da9b523dff8be42e5e38e818c82fdb0bae774387a72483836040516120a5929190613e6a565b60405180910390a250505b600073ffffffffffffffffffffffffffffffffffffffff168273ffffffffffffffffffffffffffffffffffffffff161461218957600080612132600960008673ffffffffffffffffffffffffffffffffffffffff1673ffffffffffffffffffffffffffffffffffffffff16815260200190815260200160002061289a856128b0565b915091508373ffffffffffffffffffffffffffffffffffffffff167fdec2bacdd2f05b59de34da9b523dff8be42e5e38e818c82fdb0bae774387a724838360405161217e929190613e6a565b60405180910390a250505b5b505050565b600082826040516020016121a4929190613f00565b60405160208183030381529060405280519060200120905092915050565b6000807f7fffffffffffffffffffffffffffffff5d576e7357a4501ddfe92f46681b20a08360001c11156121fd5760006003915091506122c5565b601b8560ff16141580156122155750601c8560ff1614155b156122275760006004915091506122c5565b60006001878787876040516000815260200160405260405161224c9493929190613f37565b6020604051602081039080840390855afa15801561226e573d6000803e3d6000fd5b505050602060405103519050600073ffffffffffffffffffffffffffffffffffffffff168173ffffffffffffffffffffffffffffffffffffffff16036122bc576000600192509250506122c5565b80600092509250505b94509492505050565b600060048111156122e2576122e1613f7c565b5b8160048111156122f5576122f4613f7c565b5b0315612497576001600481111561230f5761230e613f7c565b5b81600481111561232257612321613f7c565b5b03612362576040517f08c379a000000000000000000000000000000000000000000000000000000000815260040161235990613ff7565b60405180910390fd5b6002600481111561237657612375613f7c565b5b81600481111561238957612388613f7c565b5b036123c9576040517f08c379a00000000000000000000000000000000000000000000000000000000081526004016123c090614063565b60405180910390fd5b600360048111156123dd576123dc613f7c565b5b8160048111156123f0576123ef613f7c565b5b03612430576040517f08c379a0000000000000000000000000000000000000000000000000000000008152600401612427906140f5565b60405180910390fd5b60048081111561244357612442613f7c565b5b81600481111561245657612455613f7c565b5b03612496576040517f08c379a000000000000000000000000000000000000000000000000000000000815260040161248d90614187565b60405180910390fd5b5b50565b6001816000016000828254019250508190555050565b6124bb838383612b3e565b6124d66124c7846109f8565b6124d0846109f8565b83611f96565b505050565b6060600060028360026124ee91906141a7565b6124f89190613432565b67ffffffffffffffff81111561251157612510614201565b5b6040519080825280601f01601f1916602001820160405280156125435781602001600182028036833780820191505090505b5090507f30000000000000000000000000000000000000000000000000000000000000008160008151811061257b5761257a613528565b5b60200101907effffffffffffffffffffffffffffffffffffffffffffffffffffffffffffff1916908160001a9053507f7800000000000000000000000000000000000000000000000000000000000000816001815181106125df576125de613528565b5b60200101907effffffffffffffffffffffffffffffffffffffffffffffffffffffffffffff1916908160001a9053506000600184600261261f91906141a7565b6126299190613432565b90505b60018111156126c9577f3031323334353637383961626364656600000000000000000000000000000000600f86166010811061266b5761266a613528565b5b1a60f81b82828151811061268257612681613528565b5b60200101907effffffffffffffffffffffffffffffffffffffffffffffffffffffffffffff1916908160001a905350600485901c9450806126c290614230565b905061262c565b506000841461270d576040517f08c379a0000000000000000000000000000000000000000000000000000000008152600401612704906142a5565b60405180910390fd5b8091505092915050565b600073ffffffffffffffffffffffffffffffffffffffff168273ffffffffffffffffffffffffffffffffffffffff1603612786576040517f08c379a000000000000000000000000000000000000000000000000000000000815260040161277d90614311565b60405180910390fd5b61279260008383611df7565b80600260008282546127a49190613432565b92505081905550806000808473ffffffffffffffffffffffffffffffffffffffff1673ffffffffffffffffffffffffffffffffffffffff16815260200190815260200160002060008282546127f99190613432565b925050819055508173ffffffffffffffffffffffffffffffffffffffff16600073ffffffffffffffffffffffffffffffffffffffff167fddf252ad1be2c89b69c2b068fc378daa952ba7f163c4a11628f55a4df523b3ef8360405161285e9190612e4a565b60405180910390a361287260008383611dfc565b5050565b60007bffffffffffffffffffffffffffffffffffffffffffffffffffffffff905090565b600081836128a89190613432565b905092915050565b6000806000858054905090506000811461291e57856001826128d291906134f4565b815481106128e3576128e2613528565b5b9060005260206000200160000160049054906101000a90047bffffffffffffffffffffffffffffffffffffffffffffffffffffffff16612921565b60005b7bffffffffffffffffffffffffffffffffffffffffffffffffffffffff16925061294f83858763ffffffff16565b91506000811180156129a25750438660018361296b91906134f4565b8154811061297c5761297b613528565b5b9060005260206000200160000160009054906101000a900463ffffffff1663ffffffff16145b15612a2f576129b082612b43565b866001836129be91906134f4565b815481106129cf576129ce613528565b5b9060005260206000200160000160046101000a8154817bffffffffffffffffffffffffffffffffffffffffffffffffffffffff02191690837bffffffffffffffffffffffffffffffffffffffffffffffffffffffff160217905550612b1f565b856040518060400160405280612a4443611cf3565b63ffffffff168152602001612a5885612b43565b7bffffffffffffffffffffffffffffffffffffffffffffffffffffffff168152509080600181540180825580915050600190039060005260206000200160009091909190915060008201518160000160006101000a81548163ffffffff021916908363ffffffff16021790555060208201518160000160046101000a8154817bffffffffffffffffffffffffffffffffffffffffffffffffffffffff02191690837bffffffffffffffffffffffffffffffffffffffffffffffffffffffff16021790555050505b50935093915050565b60008183612b3691906134f4565b905092915050565b505050565b60007bffffffffffffffffffffffffffffffffffffffffffffffffffffffff8016821115612ba6576040517f08c379a0000000000000000000000000000000000000000000000000000000008152600401612b9d906143a3565b60405180910390fd5b819050919050565b6040518060400160405280600063ffffffff16815260200160007bffffffffffffffffffffffffffffffffffffffffffffffffffffffff1681525090565b600080fd5b60007fffffffff0000000000000000000000000000000000000000000000000000000082169050919050565b612c2681612bf1565b8114612c3157600080fd5b50565b600081359050612c4381612c1d565b92915050565b600060208284031215612c5f57612c5e612bec565b5b6000612c6d84828501612c34565b91505092915050565b60008115159050919050565b612c8b81612c76565b82525050565b6000602082019050612ca66000830184612c82565b92915050565b600081519050919050565b600082825260208201905092915050565b60005b83811015612ce6578082015181840152602081019050612ccb565b83811115612cf5576000848401525b50505050565b6000601f19601f8301169050919050565b6000612d1782612cac565b612d218185612cb7565b9350612d31818560208601612cc8565b612d3a81612cfb565b840191505092915050565b60006020820190508181036000830152612d5f8184612d0c565b905092915050565b600073ffffffffffffffffffffffffffffffffffffffff82169050919050565b6000612d9282612d67565b9050919050565b612da281612d87565b8114612dad57600080fd5b50565b600081359050612dbf81612d99565b92915050565b6000819050919050565b612dd881612dc5565b8114612de357600080fd5b50565b600081359050612df581612dcf565b92915050565b60008060408385031215612e1257612e11612bec565b5b6000612e2085828601612db0565b9250506020612e3185828601612de6565b9150509250929050565b612e4481612dc5565b82525050565b6000602082019050612e5f6000830184612e3b565b92915050565b600080600060608486031215612e7e57612e7d612bec565b5b6000612e8c86828701612db0565b9350506020612e9d86828701612db0565b9250506040612eae86828701612de6565b9150509250925092565b6000819050919050565b612ecb81612eb8565b8114612ed657600080fd5b50565b600081359050612ee881612ec2565b92915050565b600060208284031215612f0457612f03612bec565b5b6000612f1284828501612ed9565b91505092915050565b612f2481612eb8565b82525050565b6000602082019050612f3f6000830184612f1b565b92915050565b60008060408385031215612f5c57612f5b612bec565b5b6000612f6a85828601612ed9565b9250506020612f7b85828601612db0565b9150509250929050565b600060ff82169050919050565b612f9b81612f85565b82525050565b6000602082019050612fb66000830184612f92565b92915050565b600060208284031215612fd257612fd1612bec565b5b6000612fe084828501612db0565b91505092915050565b612ff281612d87565b82525050565b600060208201905061300d6000830184612fe9565b92915050565b600063ffffffff82169050919050565b61302c81613013565b82525050565b60006020820190506130476000830184613023565b92915050565b60006020828403121561306357613062612bec565b5b600061307184828501612de6565b91505092915050565b61308381612f85565b811461308e57600080fd5b50565b6000813590506130a08161307a565b92915050565b60008060008060008060c087890312156130c3576130c2612bec565b5b60006130d189828a01612db0565b96505060206130e289828a01612de6565b95505060406130f389828a01612de6565b945050606061310489828a01613091565b935050608061311589828a01612ed9565b92505060a061312689828a01612ed9565b9150509295509295509295565b600080600080600080600060e0888a03121561315257613151612bec565b5b60006131608a828b01612db0565b97505060206131718a828b01612db0565b96505060406131828a828b01612de6565b95505060606131938a828b01612de6565b94505060806131a48a828b01613091565b93505060a06131b58a828b01612ed9565b92505060c06131c68a828b01612ed9565b91505092959891949750929550565b600080604083850312156131ec576131eb612bec565b5b60006131fa85828601612db0565b925050602061320b85828601612db0565b9150509250929050565b61321e81613013565b811461322957600080fd5b50565b60008135905061323b81613215565b92915050565b6000806040838503121561325857613257612bec565b5b600061326685828601612db0565b92505060206132778582860161322c565b9150509250929050565b61328a81613013565b82525050565b60007bffffffffffffffffffffffffffffffffffffffffffffffffffffffff82169050919050565b6132c181613290565b82525050565b6040820160008201516132dd6000850182613281565b5060208201516132f060208501826132b8565b50505050565b600060408201905061330b60008301846132c7565b92915050565b7f4e487b7100000000000000000000000000000000000000000000000000000000600052602260045260246000fd5b6000600282049050600182168061335857607f821691505b60208210810361336b5761336a613311565b5b50919050565b7f416363657373436f6e74726f6c3a2063616e206f6e6c792072656e6f756e636560008201527f20726f6c657320666f722073656c660000000000000000000000000000000000602082015250565b60006133cd602f83612cb7565b91506133d882613371565b604082019050919050565b600060208201905081810360008301526133fc816133c0565b9050919050565b7f4e487b7100000000000000000000000000000000000000000000000000000000600052601160045260246000fd5b600061343d82612dc5565b915061344883612dc5565b9250827fffffffffffffffffffffffffffffffffffffffffffffffffffffffffffffffff0382111561347d5761347c613403565b5b828201905092915050565b7f4552433230566f7465733a20626c6f636b206e6f7420796574206d696e656400600082015250565b60006134be601f83612cb7565b91506134c982613488565b602082019050919050565b600060208201905081810360008301526134ed816134b1565b9050919050565b60006134ff82612dc5565b915061350a83612dc5565b92508282101561351d5761351c613403565b5b828203905092915050565b7f4e487b7100000000000000000000000000000000000000000000000000000000600052603260045260246000fd5b7f45524332303a2064656372656173656420616c6c6f77616e63652062656c6f7760008201527f207a65726f000000000000000000000000000000000000000000000000000000602082015250565b60006135b3602583612cb7565b91506135be82613557565b604082019050919050565b600060208201905081810360008301526135e2816135a6565b9050919050565b7f4552433230566f7465733a207369676e61747572652065787069726564000000600082015250565b600061361f601d83612cb7565b915061362a826135e9565b602082019050919050565b6000602082019050818103600083015261364e81613612565b9050919050565b600060808201905061366a6000830187612f1b565b6136776020830186612fe9565b6136846040830185612e3b565b6136916060830184612e3b565b95945050505050565b7f4552433230566f7465733a20696e76616c6964206e6f6e636500000000000000600082015250565b60006136d0601983612cb7565b91506136db8261369a565b602082019050919050565b600060208201905081810360008301526136ff816136c3565b9050919050565b7f45524332305065726d69743a206578706972656420646561646c696e65000000600082015250565b600061373c601d83612cb7565b915061374782613706565b602082019050919050565b6000602082019050818103600083015261376b8161372f565b9050919050565b600060c0820190506137876000830189612f1b565b6137946020830188612fe9565b6137a16040830187612fe9565b6137ae6060830186612e3b565b6137bb6080830185612e3b565b6137c860a0830184612e3b565b979650505050505050565b7f45524332305065726d69743a20696e76616c6964207369676e61747572650000600082015250565b6000613809601e83612cb7565b9150613814826137d3565b602082019050919050565b60006020820190508181036000830152613838816137fc565b9050919050565b7f45524332303a20617070726f76652066726f6d20746865207a65726f2061646460008201527f7265737300000000000000000000000000000000000000000000000000000000602082015250565b600061389b602483612cb7565b91506138a68261383f565b604082019050919050565b600060208201905081810360008301526138ca8161388e565b9050919050565b7f45524332303a20617070726f766520746f20746865207a65726f20616464726560008201527f7373000000000000000000000000000000000000000000000000000000000000602082015250565b600061392d602283612cb7565b9150613938826138d1565b604082019050919050565b6000602082019050818103600083015261395c81613920565b9050919050565b7f45524332303a20696e73756666696369656e7420616c6c6f77616e6365000000600082015250565b6000613999601d83612cb7565b91506139a482613963565b602082019050919050565b600060208201905081810360008301526139c88161398c565b9050919050565b7f45524332303a207472616e736665722066726f6d20746865207a65726f20616460008201527f6472657373000000000000000000000000000000000000000000000000000000602082015250565b6000613a2b602583612cb7565b9150613a36826139cf565b604082019050919050565b60006020820190508181036000830152613a5a81613a1e565b9050919050565b7f45524332303a207472616e7366657220746f20746865207a65726f206164647260008201527f6573730000000000000000000000000000000000000000000000000000000000602082015250565b6000613abd602383612cb7565b9150613ac882613a61565b604082019050919050565b60006020820190508181036000830152613aec81613ab0565b9050919050565b7f45524332303a207472616e7366657220616d6f756e742065786365656473206260008201527f616c616e63650000000000000000000000000000000000000000000000000000602082015250565b6000613b4f602683612cb7565b9150613b5a82613af3565b604082019050919050565b60006020820190508181036000830152613b7e81613b42565b9050919050565b7f53616665436173743a2076616c756520646f65736e27742066697420696e203360008201527f3220626974730000000000000000000000000000000000000000000000000000602082015250565b6000613be1602683612cb7565b9150613bec82613b85565b604082019050919050565b60006020820190508181036000830152613c1081613bd4565b9050919050565b600081905092915050565b7f416363657373436f6e74726f6c3a206163636f756e7420000000000000000000600082015250565b6000613c58601783613c17565b9150613c6382613c22565b601782019050919050565b6000613c7982612cac565b613c838185613c17565b9350613c93818560208601612cc8565b80840191505092915050565b7f206973206d697373696e6720726f6c6520000000000000000000000000000000600082015250565b6000613cd5601183613c17565b9150613ce082613c9f565b601182019050919050565b6000613cf682613c4b565b9150613d028285613c6e565b9150613d0d82613cc8565b9150613d198284613c6e565b91508190509392505050565b600060a082019050613d3a6000830188612f1b565b613d476020830187612f1b565b613d546040830186612f1b565b613d616060830185612e3b565b613d6e6080830184612fe9565b9695505050505050565b7f4e487b7100000000000000000000000000000000000000000000000000000000600052601260045260246000fd5b6000613db282612dc5565b9150613dbd83612dc5565b925082613dcd57613dcc613d78565b5b828204905092915050565b7f4552433230566f7465733a20746f74616c20737570706c79207269736b73206f60008201527f766572666c6f77696e6720766f74657300000000000000000000000000000000602082015250565b6000613e34603083612cb7565b9150613e3f82613dd8565b604082019050919050565b60006020820190508181036000830152613e6381613e27565b9050919050565b6000604082019050613e7f6000830185612e3b565b613e8c6020830184612e3b565b9392505050565b7f1901000000000000000000000000000000000000000000000000000000000000600082015250565b6000613ec9600283613c17565b9150613ed482613e93565b600282019050919050565b6000819050919050565b613efa613ef582612eb8565b613edf565b82525050565b6000613f0b82613ebc565b9150613f178285613ee9565b602082019150613f278284613ee9565b6020820191508190509392505050565b6000608082019050613f4c6000830187612f1b565b613f596020830186612f92565b613f666040830185612f1b565b613f736060830184612f1b565b95945050505050565b7f4e487b7100000000000000000000000000000000000000000000000000000000600052602160045260246000fd5b7f45434453413a20696e76616c6964207369676e61747572650000000000000000600082015250565b6000613fe1601883612cb7565b9150613fec82613fab565b602082019050919050565b6000602082019050818103600083015261401081613fd4565b9050919050565b7f45434453413a20696e76616c6964207369676e6174757265206c656e67746800600082015250565b600061404d601f83612cb7565b915061405882614017565b602082019050919050565b6000602082019050818103600083015261407c81614040565b9050919050565b7f45434453413a20696e76616c6964207369676e6174757265202773272076616c60008201527f7565000000000000000000000000000000000000000000000000000000000000602082015250565b60006140df602283612cb7565b91506140ea82614083565b604082019050919050565b6000602082019050818103600083015261410e816140d2565b9050919050565b7f45434453413a20696e76616c6964207369676e6174757265202776272076616c60008201527f7565000000000000000000000000000000000000000000000000000000000000602082015250565b6000614171602283612cb7565b915061417c82614115565b604082019050919050565b600060208201905081810360008301526141a081614164565b9050919050565b60006141b282612dc5565b91506141bd83612dc5565b9250817fffffffffffffffffffffffffffffffffffffffffffffffffffffffffffffffff04831182151516156141f6576141f5613403565b5b828202905092915050565b7f4e487b7100000000000000000000000000000000000000000000000000000000600052604160045260246000fd5b600061423b82612dc5565b91506000820361424e5761424d613403565b5b600182039050919050565b7f537472696e67733a20686578206c656e67746820696e73756666696369656e74600082015250565b600061428f602083612cb7565b915061429a82614259565b602082019050919050565b600060208201905081810360008301526142be81614282565b9050919050565b7f45524332303a206d696e7420746f20746865207a65726f206164647265737300600082015250565b60006142fb601f83612cb7565b9150614306826142c5565b602082019050919050565b6000602082019050818103600083015261432a816142ee565b9050919050565b7f53616665436173743a2076616c756520646f65736e27742066697420696e203260008201527f3234206269747300000000000000000000000000000000000000000000000000602082015250565b600061438d602783612cb7565b915061439882614331565b604082019050919050565b600060208201905081810360008301526143bc81614380565b905091905056fea26469706673582212207b13268d3d35b1d9eec8d1d8c32200af7cdd3474edde921df4366fa5a2afe32364736f6c634300080f0033",
  "devdoc": {
    "kind": "dev",
    "methods": {
      "DOMAIN_SEPARATOR()": {
        "details": "See {IERC20Permit-DOMAIN_SEPARATOR}."
      },
      "allowance(address,address)": {
        "details": "See {IERC20-allowance}."
      },
      "approve(address,uint256)": {
        "details": "See {IERC20-approve}. NOTE: If `amount` is the maximum `uint256`, the allowance is not updated on `transferFrom`. This is semantically equivalent to an infinite approval. Requirements: - `spender` cannot be the zero address."
      },
      "balanceOf(address)": {
        "details": "See {IERC20-balanceOf}."
      },
      "checkpoints(address,uint32)": {
        "details": "Get the `pos`-th checkpoint for `account`."
      },
      "decimals()": {
        "details": "Returns the number of decimals used to get its user representation. For example, if `decimals` equals `2`, a balance of `505` tokens should be displayed to a user as `5.05` (`505 / 10 ** 2`). Tokens usually opt for a value of 18, imitating the relationship between Ether and Wei. This is the value {ERC20} uses, unless this function is overridden; NOTE: This information is only used for _display_ purposes: it in no way affects any of the arithmetic of the contract, including {IERC20-balanceOf} and {IERC20-transfer}."
      },
      "decreaseAllowance(address,uint256)": {
        "details": "Atomically decreases the allowance granted to `spender` by the caller. This is an alternative to {approve} that can be used as a mitigation for problems described in {IERC20-approve}. Emits an {Approval} event indicating the updated allowance. Requirements: - `spender` cannot be the zero address. - `spender` must have allowance for the caller of at least `subtractedValue`."
      },
      "delegate(address)": {
        "details": "Delegate votes from the sender to `delegatee`."
      },
      "delegateBySig(address,uint256,uint256,uint8,bytes32,bytes32)": {
        "details": "Delegates votes from signer to `delegatee`"
      },
      "delegates(address)": {
        "details": "Get the address `account` is currently delegating to."
      },
      "getPastTotalSupply(uint256)": {
        "details": "Retrieve the `totalSupply` at the end of `blockNumber`. Note, this value is the sum of all balances. It is but NOT the sum of all the delegated votes! Requirements: - `blockNumber` must have been already mined"
      },
      "getPastVotes(address,uint256)": {
        "details": "Retrieve the number of votes for `account` at the end of `blockNumber`. Requirements: - `blockNumber` must have been already mined"
      },
      "getRoleAdmin(bytes32)": {
        "details": "Returns the admin role that controls `role`. See {grantRole} and {revokeRole}. To change a role's admin, use {_setRoleAdmin}."
      },
      "getVotes(address)": {
        "details": "Gets the current votes balance for `account`"
      },
      "grantRole(bytes32,address)": {
        "details": "Grants `role` to `account`. If `account` had not been already granted `role`, emits a {RoleGranted} event. Requirements: - the caller must have ``role``'s admin role. May emit a {RoleGranted} event."
      },
      "hasRole(bytes32,address)": {
        "details": "Returns `true` if `account` has been granted `role`."
      },
      "increaseAllowance(address,uint256)": {
        "details": "Atomically increases the allowance granted to `spender` by the caller. This is an alternative to {approve} that can be used as a mitigation for problems described in {IERC20-approve}. Emits an {Approval} event indicating the updated allowance. Requirements: - `spender` cannot be the zero address."
      },
      "name()": {
        "details": "Returns the name of the token."
      },
      "nonces(address)": {
        "details": "See {IERC20Permit-nonces}."
      },
      "numCheckpoints(address)": {
        "details": "Get number of checkpoints for `account`."
      },
      "permit(address,address,uint256,uint256,uint8,bytes32,bytes32)": {
        "details": "See {IERC20Permit-permit}."
      },
      "renounceRole(bytes32,address)": {
        "details": "Revokes `role` from the calling account. Roles are often managed via {grantRole} and {revokeRole}: this function's purpose is to provide a mechanism for accounts to lose their privileges if they are compromised (such as when a trusted device is misplaced). If the calling account had been revoked `role`, emits a {RoleRevoked} event. Requirements: - the caller must be `account`. May emit a {RoleRevoked} event."
      },
      "revokeRole(bytes32,address)": {
        "details": "Revokes `role` from `account`. If `account` had been granted `role`, emits a {RoleRevoked} event. Requirements: - the caller must have ``role``'s admin role. May emit a {RoleRevoked} event."
      },
      "supportsInterface(bytes4)": {
        "details": "See {IERC165-supportsInterface}."
      },
      "symbol()": {
        "details": "Returns the symbol of the token, usually a shorter version of the name."
      },
      "totalSupply()": {
        "details": "See {IERC20-totalSupply}."
      },
      "transfer(address,uint256)": {
        "details": "See {IERC20-transfer}. Requirements: - `to` cannot be the zero address. - the caller must have a balance of at least `amount`."
      },
      "transferFrom(address,address,uint256)": {
        "details": "See {IERC20-transferFrom}. Emits an {Approval} event indicating the updated allowance. This is not required by the EIP. See the note at the beginning of {ERC20}. NOTE: Does not update the allowance if the current allowance is the maximum `uint256`. Requirements: - `from` and `to` cannot be the zero address. - `from` must have a balance of at least `amount`. - the caller must have allowance for ``from``'s tokens of at least `amount`."
      }
    },
    "version": 1
  },
  "userdoc": {
    "kind": "user",
    "methods": {},
    "version": 1
  },
  "storageLayout": {
    "storage": [
      {
        "astId": 486,
        "contract": "contracts/ERC20.sol:MyToken",
        "label": "_balances",
        "offset": 0,
        "slot": "0",
        "type": "t_mapping(t_address,t_uint256)"
      },
      {
        "astId": 492,
        "contract": "contracts/ERC20.sol:MyToken",
        "label": "_allowances",
        "offset": 0,
        "slot": "1",
        "type": "t_mapping(t_address,t_mapping(t_address,t_uint256))"
      },
      {
        "astId": 494,
        "contract": "contracts/ERC20.sol:MyToken",
        "label": "_totalSupply",
        "offset": 0,
        "slot": "2",
        "type": "t_uint256"
      },
      {
        "astId": 496,
        "contract": "contracts/ERC20.sol:MyToken",
        "label": "_name",
        "offset": 0,
        "slot": "3",
        "type": "t_string_storage"
      },
      {
        "astId": 498,
        "contract": "contracts/ERC20.sol:MyToken",
        "label": "_symbol",
        "offset": 0,
        "slot": "4",
        "type": "t_string_storage"
      },
      {
        "astId": 24,
        "contract": "contracts/ERC20.sol:MyToken",
        "label": "_roles",
        "offset": 0,
        "slot": "5",
        "type": "t_mapping(t_bytes32,t_struct(RoleData)19_storage)"
      },
      {
        "astId": 1819,
        "contract": "contracts/ERC20.sol:MyToken",
        "label": "_nonces",
        "offset": 0,
        "slot": "6",
        "type": "t_mapping(t_address,t_struct(Counter)2032_storage)"
      },
      {
        "astId": 1827,
        "contract": "contracts/ERC20.sol:MyToken",
        "label": "_PERMIT_TYPEHASH_DEPRECATED_SLOT",
        "offset": 0,
        "slot": "7",
        "type": "t_bytes32"
      },
      {
        "astId": 1160,
        "contract": "contracts/ERC20.sol:MyToken",
        "label": "_delegates",
        "offset": 0,
        "slot": "8",
        "type": "t_mapping(t_address,t_address)"
      },
      {
        "astId": 1166,
        "contract": "contracts/ERC20.sol:MyToken",
        "label": "_checkpoints",
        "offset": 0,
        "slot": "9",
        "type": "t_mapping(t_address,t_array(t_struct(Checkpoint)1151_storage)dyn_storage)"
      },
      {
        "astId": 1170,
        "contract": "contracts/ERC20.sol:MyToken",
        "label": "_totalSupplyCheckpoints",
        "offset": 0,
        "slot": "10",
        "type": "t_array(t_struct(Checkpoint)1151_storage)dyn_storage"
      }
    ],
    "types": {
      "t_address": {
        "encoding": "inplace",
        "label": "address",
        "numberOfBytes": "20"
      },
      "t_array(t_struct(Checkpoint)1151_storage)dyn_storage": {
        "base": "t_struct(Checkpoint)1151_storage",
        "encoding": "dynamic_array",
        "label": "struct ERC20Votes.Checkpoint[]",
        "numberOfBytes": "32"
      },
      "t_bool": {
        "encoding": "inplace",
        "label": "bool",
        "numberOfBytes": "1"
      },
      "t_bytes32": {
        "encoding": "inplace",
        "label": "bytes32",
        "numberOfBytes": "32"
      },
      "t_mapping(t_address,t_address)": {
        "encoding": "mapping",
        "key": "t_address",
        "label": "mapping(address => address)",
        "numberOfBytes": "32",
        "value": "t_address"
      },
      "t_mapping(t_address,t_array(t_struct(Checkpoint)1151_storage)dyn_storage)": {
        "encoding": "mapping",
        "key": "t_address",
        "label": "mapping(address => struct ERC20Votes.Checkpoint[])",
        "numberOfBytes": "32",
        "value": "t_array(t_struct(Checkpoint)1151_storage)dyn_storage"
      },
      "t_mapping(t_address,t_bool)": {
        "encoding": "mapping",
        "key": "t_address",
        "label": "mapping(address => bool)",
        "numberOfBytes": "32",
        "value": "t_bool"
      },
      "t_mapping(t_address,t_mapping(t_address,t_uint256))": {
        "encoding": "mapping",
        "key": "t_address",
        "label": "mapping(address => mapping(address => uint256))",
        "numberOfBytes": "32",
        "value": "t_mapping(t_address,t_uint256)"
      },
      "t_mapping(t_address,t_struct(Counter)2032_storage)": {
        "encoding": "mapping",
        "key": "t_address",
        "label": "mapping(address => struct Counters.Counter)",
        "numberOfBytes": "32",
        "value": "t_struct(Counter)2032_storage"
      },
      "t_mapping(t_address,t_uint256)": {
        "encoding": "mapping",
        "key": "t_address",
        "label": "mapping(address => uint256)",
        "numberOfBytes": "32",
        "value": "t_uint256"
      },
      "t_mapping(t_bytes32,t_struct(RoleData)19_storage)": {
        "encoding": "mapping",
        "key": "t_bytes32",
        "label": "mapping(bytes32 => struct AccessControl.RoleData)",
        "numberOfBytes": "32",
        "value": "t_struct(RoleData)19_storage"
      },
      "t_string_storage": {
        "encoding": "bytes",
        "label": "string",
        "numberOfBytes": "32"
      },
      "t_struct(Checkpoint)1151_storage": {
        "encoding": "inplace",
        "label": "struct ERC20Votes.Checkpoint",
        "members": [
          {
            "astId": 1148,
            "contract": "contracts/ERC20.sol:MyToken",
            "label": "fromBlock",
            "offset": 0,
            "slot": "0",
            "type": "t_uint32"
          },
          {
            "astId": 1150,
            "contract": "contracts/ERC20.sol:MyToken",
            "label": "votes",
            "offset": 4,
            "slot": "0",
            "type": "t_uint224"
          }
        ],
        "numberOfBytes": "32"
      },
      "t_struct(Counter)2032_storage": {
        "encoding": "inplace",
        "label": "struct Counters.Counter",
        "members": [
          {
            "astId": 2031,
            "contract": "contracts/ERC20.sol:MyToken",
            "label": "_value",
            "offset": 0,
            "slot": "0",
            "type": "t_uint256"
          }
        ],
        "numberOfBytes": "32"
      },
      "t_struct(RoleData)19_storage": {
        "encoding": "inplace",
        "label": "struct AccessControl.RoleData",
        "members": [
          {
            "astId": 16,
            "contract": "contracts/ERC20.sol:MyToken",
            "label": "members",
            "offset": 0,
            "slot": "0",
            "type": "t_mapping(t_address,t_bool)"
          },
          {
            "astId": 18,
            "contract": "contracts/ERC20.sol:MyToken",
            "label": "adminRole",
            "offset": 0,
            "slot": "1",
            "type": "t_bytes32"
          }
        ],
        "numberOfBytes": "64"
      },
      "t_uint224": {
        "encoding": "inplace",
        "label": "uint224",
        "numberOfBytes": "28"
      },
      "t_uint256": {
        "encoding": "inplace",
        "label": "uint256",
        "numberOfBytes": "32"
      },
      "t_uint32": {
        "encoding": "inplace",
        "label": "uint32",
        "numberOfBytes": "4"
      }
    }
  }
}